:02000002B0004C
:1040000000400B00C8530B00000006000C00050226
:084010000401E50C00000000B2
:04401800B8500B0091
:10401C0009480A49884208B505D0094A824202D0AB
:10402C00121A00F090FF0748074A0021121A00F0FC
:10403C0098FF014808BD00BF30E6032028530B0051
:10404C00A8E60320A8E60320EDE7032070B5074E91
:10405C00074C00F083FDA41BA4080025AC4200D142
:10406C0070BD56F8043B98470135F7E7D4520B0066
:10407C00F8520B0000F014B808B500F061F8BDE878
:10408C00084000F023BD00F05FBA00F065BA00787C
:10409C00B0FA80F0400970470123037070470000AC
:1040AC0008B50321132000F009FF0321122000F0B2
:1040BC0005FF0321112000F001FF0321102000F067
:1040CC00FDFE0B4B0121188800F0F8FE094B012175
:1040DC00188800F0F3FE084B0121188800F0EEFE62
:1040EC0000F030FCBDE808404FF4165100F01EBC47
:1040FC0038E6032034E6032030E6032008B50A4BEB
:10410C0019780A4B188800F0EAFE094B1978094B0C
:10411C00188800F0E4FE084B1978084B1888BDE8A5
:10412C00084000F0DCBE00BFB5E6032034E60320F7
:10413C00B6E6032038E60320B4E6032030E603207D
:10414C0008B5132000F0E4FE48B1204A137883F040
:10415C0001031370FFF7D2FF962000F091FC1220A0
:10416C0000F0D6FE48B11A4A137883F0010313709D
:10417C00FFF7C4FF962000F083FC112000F0C8FE6E
:10418C0048B1144A137883F001031370FFF7B6FF9C
:10419C00962000F075FC102000F0BAFEA8B10B4B75
:1041AC000B491A780B4872B9027862B90A7852B97D
:1041BC00012202701A700A70FFF7A0FFBDE80840D8
:1041CC00962000F05DBC0022F3E708BDB5E60320A5
:1041DC00B4E60320B6E6032008B50120002100F068
:1041EC0097F9064B0022C3E90022A2F580329A60AF
:1041FC00BDE80840012000F07BB900BFA8E6032011
:10420C0008B5024B1B681B68019308BD4C020300E8
:10421C0008B5024B1B685B68019308BD4C02030098
:10422C0008B5024B1B681B69019308BD4C020300C7
:10423C0008B5024B1B685B69019308BD4C02030077
:10424C0008B5024B1B689B69019308BD4C02030027
:10425C0008B5024B1B68DB69019308BD4C020300D7
:10426C0008B5024B1B681B6A019308BD4C02030086
:10427C0008B5024B1B681B6A019308BD280203009A
:10428C0008B5024B1B685B6A019308BD280203004A
:10429C0008B5024B1B689B6A019308BD28020300FA
:1042AC0008B5024B1B68DB6A019308BD28020300AA
:1042BC0008B5024B1B681B6B019308BD2802030059
:1042CC0008B5024B1B685B6B019308BD2802030009
:1042DC0008B5024B1B681B6C019308BD2802030038
:1042EC0008B5024B1B68DB69019308BD3002030063
:1042FC0008B5024B1B681B6A019308BD3002030012
:10430C0008B5024B1B68DB68019308BD3C02030037
:10431C0008B5024B1B681B69019308BD3C020300E6
:10432C0008B5024B1B685B69019308BD3C02030096
:10433C0008B5024B1B689B69019308BD3C02030046
:10434C0008B5024B1B68DB69019308BD3C020300F6
:10435C0008B5024B1B681B6A019308BD3C020300A5
:10436C0008B5024B1B689B6A019308BD3C02030015
:10437C0008B5024B1B681B6C019308BD3C02030083
:10438C0008B5024B1B685B69019308BD640203000E
:10439C0008B5024B1B685B6C019308BD4802030017
:1043AC0008B5024B1B685B68019308BD180203003B
:1043BC0008B5024B1B685B69019308BD180203002A
:1043CC0008B5024B1B689B68019308BD2C020300C7
:1043DC0008B5024B1B68DB68019308BD2C02030077
:1043EC0008B5024B1B681B69019308BD2C02030026
:1043FC0008B5024B1B685B69019308BD2C020300D6
:10440C0008B5024B1B689B68019308BD680203004A
:10441C0008B5024B1B68DB68019308BD68020300FA
:10442C0008B5024B1B68DB6B019308BD440203000B
:10443C0008B5024B1B685B68019308BD4002030082
:10444C0008B5024B1B689B68019308BD4002030032
:10445C0008B5024B1B68DB68019308BD40020300E2
:10446C0008B5024B1B681B69019308BD4002030091
:10447C0008B5024B1B685B69019308BD4002030041
:10448C0008B5024B1B689B69019308BD40020300F1
:10449C0008B5024B1B68DB69019308BD40020300A1
:1044AC0008B5024B1B681B6A019308BD4002030050
:1044BC0008B5024B1B681B6B019308BD400203003F
:1044CC0008B5024B1B685B6B019308BD40020300EF
:1044DC0008B5024B1B681B6C019308BD400203001E
:1044EC0008B5024B1B685B6C019308BD40020300CE
:1044FC0008B5024B1B685B68019308BD20020300E2
:10450C0008B5024B1B685B69019308BD20020300D0
:10451C0008B5024B1B68DB6A019308BD200203003F
:10452C0008B5034B1B68D3F88830019308BD000015
:10453C002002030008B5034B1B68D3F89430019399
:10454C0008BD00002002030008B5024B1B681B6865
:10455C00019308BD1C02030008B5024B1B685B6885
:10456C00019308BD1C02030008B5024B1B681B6CB1
:10457C00019308BD1C02030008B5024B1B685B6C61
:10458C00019308BD1C020300002340681A46FFF784
:10459C004FBF406800220221FFF75ABF002240683B
:1045AC001146FFF74DBF002240681146FFF758BF78
:1045BC00002340681A461946FFF75ABF002340688B
:1045CC001A461946FFF75CBF40680021FFF780BF11
:1045DC0040680021FFF784BF4068002281F0010190
:1045EC00FFF756BF40680022FFF762BF0022406809
:1045FC001146FFF765BF002240681146FFF750BF18
:10460C002DE9F04395B014460D46074600F0FAF933
:10461C0000211C220DA8009100F0A3FC40230C9358
:10462C0020466B460CAA0021FFF7F2FE0446002838
:10463C004BD1024601216868FFF712FF0221804628
:10464C0022466868FFF70CFF009E81462146002E2B
:10465C003BD0002939D17368022B03D00A2B11D01F
:10466C00F669F4E7B8F1000FFAD0716906A80431C5
:10467C0007AD00F0F5F90FCD3C1D0FC42B6823706E
:10468C004146EDE7B9F1000FEAD07469102201A898
:10469C0000F067FC06238DF8143001AD04F108031B
:1046AC001834186859682A4603C20833A3421546C1
:1046BC00F7D101A906A807AD00F0B2F90FCD3C1D4A
:1046CC000FC42B6823704946CAE70098FFF798FE81
:1046DC00384615B0BDE8F083024B034A1A6000223D
:1046EC005A607047B8E60320D4500B000022406893
:1046FC001146FFF7B5BE002240681146FFF7D0BE49
:10470C00002240681146FFF7DBBE40680022FFF72D
:10471C00CFBE4068002281F00101FFF7B9BE002333
:10472C0040681A461946FFF7ABBE002340681A468C
:10473C001946FFF79DBE002240681146FFF780BE68
:10474C00406800220221FFF783BE002340681A460E
:10475C00FFF76EBE024B04225A60024A1A60704781
:10476C00C0E6032010510B0070474174704708B528
:10477C00007CFFF7F5FD20EAE07008BD08B5007C71
:10478C00FFF7C6FD20EAE07008BD08B5007CFFF716
:10479C00CFFD40EAE07008BD08B5007CFFF7C0FD16
:1047AC0040EAE07008BD007CFFF7CABD37B5457C18
:1047BC0004462DB1207C03B0BDE83040FFF7A0BD0E
:1047CC00007C0191FFF7CCFD00280199F2DC284612
:1047DC0003B030BD10B514210446FFF756FC20463B
:1047EC0010BD000010B54FF47A730446084611460C
:1047FC000022C4E90123044B236001232074637459
:10480C00FFF7B6FD204610BD4C510B007047F8B5B4
:10481C00064615460C468F18BC4206D0336814F871
:10482C00011B9B6830469847F6E72846F8BD007C8C
:10483C000022FFF71DBD007C0021FFF721BD007C8D
:10484C000021FFF725BD007C0021FFF729BD007C6E
:10485C000021FFF72DBD10B514210446FFF715FC00
:10486C00204610BD10B54FF47A730446084600215B
:10487C00C4E90113034B236020741146FFF728FD94
:10488C00204610BD7C510B00417470477047704737
:10489C0008B50021007CFFF7D3FC40EAE07008BDAE
:1048AC0008B50121007CFFF7CBFC40EAE07008BDA5
:1048BC0008B5007CFFF7BCFC20EAE07008BD08B529
:1048CC00007CFFF7ADFC20EAE07008BD13B5044690
:1048DC00007C0191FFF7ACFC0028019901DC607CA5
:1048EC0020B1207CFFF7B4FC20EAE07002B010BDD0
:1048FC00007CFFF7B5BC10B514210446FFF7C5FBCF
:10490C00204610BD10B54FF47A73044608460021BA
:10491C00C4E90113044B2360012320746374114612
:10492C00FFF76EFC204610BDA4510B00007C00224A
:10493C00FFF76EBC10B514220446002100F011FBE9
:10494C00204610BD10B50F4C88B003A8FFF7F2FF3E
:10495C002178BFF35B8F11F001010FD1204601913B
:10496C00FFF795FB019948B103AA0748FFF7CAFF67
:10497C002046FFF791FB054800F0DFFA024808B02B
:10498C0010BD00BFC8E60320CCE6032099480B00FD
:10499C00704710B518210446FFF777FB204610BD71
:1049AC00F0B5037D062B8DB00E4600F104074FF0D9
:1049BC00000412D000F1080515F8011D0A2230463A
:1049CC0000F041F9AF42044419D0002CF4D02E2150
:1049DC00304600F035F90444EEE72F236A46394699
:1049EC000A208DF80040FFF7CBFC684600F0F0FA87
:1049FC0033680246DB6869463046984704462046D1
:104A0C000DB0F0BD10B5054B0446112240F8043B27
:104A1C00002100F0A6FA204610BD00BFD4510B00B7
:104A2C000346074A10B543F8042B01F1100251F864
:104A3C00044B43F8044B9142F9D10A781A7010BD1B
:104A4C00D4510B0010B59DF8084044EA032343EA07
:104A5C00024242EA016104234160037510BD00006B
:104A6C0007B5064B0360CB7800938B784A780978AE
:104A7C00FFF7E8FF03B05DF804FB00BFD4510B0057
:104A8C000021FFF73DBD0000014B1860704700BFCF
:104A9C0040E6032008B50B4B43B1FFF753FF036807
:104AAC001B699847002801DDAFF30080064B43B12A
:104ABC0000F0A2F903681B699847002801DDAFF3E9
:104ACC00008008BD000000000000000008B5FFF7E2
:104ADC00E1FFFFF76DFC014B186008BD34E70320C4
:104AEC000548064A064908B5121A00F02CFA054B7F
:104AFC00054A1A6008BD00BF00F4032004F403202B
:104B0C0024530B0000F403201E1C279A07B5002326
:104B1C0000931A466FF07701FFF70CFD03B05DF8B8
:104B2C0004FB000007B543880A2B08D0502B0BD18F
:104B3C00094B1B684BB103B05DF804EB1847FFF74A
:104B4C00E5FF03B05DF804FB002300931A466FF0F9
:104B5C007701FFF7EFFCF4E7E4E6032010B5124809
:104B6C000021FFF709FD114B1A68114B9A42114BAA
:104B7C000CBF012200221A7001D0FFF7B1FFFFF722
:104B8C000FFC044600F0F6F90B4B13B12046AFF3C3
:104B9C00008000210848FFF743FCBDE8104007489F
:104BAC000021FFF7BDBC00BF954A0B0000F40320A9
:104BBC001E1C279AE0E6032000000000314B0B007E
:104BCC00014B00229A607047E8E60320024B1A68FA
:104BDC00024B1A60704700BF3CE60320F8E6032046
:104BEC00014B024A1A607047FCE60320FC510B0093
:104BFC00F8B506460D468F180024BD420CD033681C
:104C0C0015F8011B9B6830469847031E01DB1C44BA
:104C1C00F3E7002C08BF1C462046F8BD13B504462C
:104C2C00084659B1019100F0D3F923680199DB686A
:104C3C000246204602B0BDE81040184702B010BD35
:104C4C0003689B68184730B58BB00023012A8DF898
:104C5C00243098BF0A2209AC0D46B1FBF2F101FBDE
:104C6C00125303F0FF03092B94BF30333733DBB2FD
:104C7C00AA4204F8013DEFD92146FFF7CFFF0BB054
:104C8C0030BD0000024800230360FFF781BB00BF6A
:104C9C0000E70320054B02221A60054B054A9A6077
:104CAC000020C3E90000FFF723BC00BF10E703207E
:104CBC0004E703200000FFFF10B5044608462170EE
:104CCC00FFF70EFB00236360204610BD00224068F6
:104CDC001146FFF7E5BB002240681146FFF7F0BB19
:104CEC0040680022FFF7E4BB4068002281F001011C
:104CFC00FFF7CEBB002340681A461946FFF7C0BB2E
:104D0C00002340681A461946FFF7B2BB00224068E0
:104D1C001146FFF7A5BB002240681146FFF790BB78
:104D2C00406800220221FFF793BB002340681A461B
:104D3C00FFF77EBB024B03225A60024A1A6070478F
:104D4C0014E7032008520B007047000038B52025EB
:104D5C00142304460360856005610649284600F06B
:104D6C00EAF804496060284600F0E5F8E060204667
:104D7C0038BD00BF3C520B0030B50E4D2978BFF347
:104D8C005B8F11F0010487B011D12846FFF77FF932
:104D9C0068B101A8FFF7DAFF01AA21460648FFF720
:104DAC0061FD2846FFF778F9044800F0C6F8024880
:104DBC0007B030BD1CE7032020E70320554D0B0046
:104DCC007047000038B5044614252A46002100F02F
:104DDC00C8F825804025074925812846258200F002
:104DEC00AAF804496060284600F0A5F8E060204667
:104DFC0038BD00BF3C520B0030B50E4D2978BFF3C7
:104E0C005B8F11F0010487B011D12846FFF73FF9F1
:104E1C0068B101A8FFF7D6FF01AA21460648FFF7A3
:104E2C00E1FC2846FFF738F9044800F086F8024800
:104E3C0007B030BD38E703203CE70320CD4D0B0015
:104E4C00232813B502D9002002B010BDA0F10B032A
:104E5C00022B1AD8174C2178BFF35B8F11F001018C
:104E6C000BD120460191FFF712F9019928B1124894
:104E7C00FFF722FF2046FFF70FF90F4B1878FFF7CB
:104E8C0037FA0028DFD10120DEE7012809D8FFF727
:104E9C0073FF0021007CFFF713FA80F00100C0B211
:104EAC00D2E709380128EED8FFF7A6FF007CFFF700
:104EBC004FFAF2E750E7032054E70320232838B5D4
:104ECC0004460D460AD8FF2908D0FFF7B9FF28B1D0
:104EDC0029462046BDE83840FFF772BA38BD38B5D0
:104EEC0004460D46FFF774FAFF2810D0062804D8A4
:104EFC004D2323FA00F0C30709D42046FFF7A0FF87
:104F0C0028B129462046BDE83840FFF769BA38BDBC
:104F1C0010B50446FFF75CFA031FDBB2012B08D96E
:104F2C002046FFF78DFF20B12046BDE81040FFF76B
:104F3C005FBA002010BDFFF7A6B8002301461A4641
:104F4C00184600F04DB80A44914200F1FF3300D1ED
:104F5C00704710B511F8014B03F8014F9142F9D18C
:104F6C0010BD02440346934200D1704703F8011B65
:104F7C00F9E7000038B5104B1D68AB6B0446B3B9AC
:104F8C001820FFF7E1FA0246A86320B90B4B0C4836
:104F9C004221FFF7E9FA0B490B4BC0E900130B4B0D
:104FAC0083600B23838100210120C2E90401AB6BD8
:104FBC0000221C615A6138BD40E603203D520B00B3
:104FCC0054520B000E33CDAB34126DE6ECDE050003
:104FDC00034613F8012B002AFBD1181A013870472D
:104FEC002DE9F843DFF8B8800646D8F800001F46D4
:104FFC000D46914600F056F8254B1C6834B9254CEB
:10500C001C60254B13B11B68C4F8883063681F2BD8
:10501C0007DDD8F8000000F047F84FF0FF30BDE88E
:10502C00F8834EB3D4F8880088B91C4B23B9D8F850
:10503C00000000F038F8F0E74FF48470FFF784FAC2
:10504C000028F4D00023C0E94033C4F8880063681A
:10505C0040F8239001229A4000EB8301D0F80031F4
:10506C001343C0F80031022EC1F8807002BFD0F893
:10507C0004311343C0F804316368D8F800005A1C9B
:10508C000233626044F8235000F00EF80020C6E7AB
:10509C00E8E703205CE703200000000055450B0007
:1050AC00A4E6032070477047704700001D400B00BA
:1050BC0059400B0081400B0085400B0000000000A4
:1050CC00000000000000000095450B009F450B0000
:1050DC00A9450B00B3450B00BD450B00C9450B00A2
:1050EC00D5450B00DD450B00E5450B00F1450B00EC
:1050FC00F9450B0003460B000D460B0000000000A9
:10510C000000000057470B004D470B0043470B00B6
:10511C00F9460B0037470B002B470B00D5450B000E
:10512C00DD450B001F470B0017470B000D470B000D
:10513C0003470B000D460B000000000000000000B0
:10514C0075470B00E1470B00B9470B00FD4B0B00FB
:10515C0089470B00A5470B0097470B00B3470B0083
:10516C0077470B007B470B0000000000000000009D
:10517C0019480B0063480B003B480B001B480B0005
:10518C0043480B004B480B0053480B005B480B008B
:10519C0000000000000000009B480B0003490B00BE
:1051AC00D9480B00FD4B0B00CB480B009D480B0066
:1051BC00AD480B00FD480B00BD480B0095480B009B
:1051CC000000000000000000AD490B009D490B00E1
:1051DC009F490B0025592D256D2D25645425483AE2
:1051EC00254D3A2553257A0061736374696D65000A
:1051FC00617070000000000000000000374D0B00D3
:10520C002D4D0B00234D0B00194D0B000D4D0B00BC
:10521C00014D0B00D5450B00DD450B00F54C0B008B
:10522C00ED4C0B00E34C0B00D94C0B000D460B0066
:10523C00005245454E54206D616C6C6F6320737544
:10524C0063636565646564002F6D6E742F776F7290
:10525C006B73706163652F776F726B7370616365CD
:10526C002F4743432D31302D706970656C696E6525
:10527C002F6A656E6B696E732D4743432D31302D4C
:10528C00706970656C696E652D34385F3230323000
:10529C00313132345F313630363138303634312FAB
:1052AC007372632F6E65776C69622F6E65776C69AC
:1052BC00622F6C6962632F7374646C69622F726104
:1052CC006E642E6300000000E5410B00E5460B0008
:1052DC0061470B00CD4B0B00D94B0B00ED4B0B007A
:1052EC00914C0B00A14C0B00414D0B000000000039
:0452FC0000000000AE
:10530000040000001400000003000000474E550098
:1053100029BC68828D3AC6E137CF7FB2E49D314324
:0453200082F137904F
:045324000000000085
:10532800050000000600000007000000F4510B0013
:1053380044E6032000000000000000000000000018
:105348000000000000000000000000000000000055
:105358000000000000000000000000000000000045
:105368000000000000000000000000000000000035
:105378000000000000000000000000000000000025
:105388000000000000000000000000000000000015
:0853980000000000ECE7032017
:1053A000FFFFFFFF00000102030405060708090ACA
:1053B0000B0C0D0E0F101112131415161718191AC5
:0853C0001B1C1D1E1F2028000C
:0453C80078563412CD
:04000003B000401CED
:00000001FF
